{
  "abi": [
    {
      "inputs": [],
      "stateMutability": "nonpayable",
      "type": "constructor"
    },
    {
      "anonymous": false,
      "inputs": [
        {
          "indexed": true,
          "internalType": "uint256",
          "name": "concertId",
          "type": "uint256"
        },
        {
          "indexed": false,
          "internalType": "uint256",
          "name": "capacity",
          "type": "uint256"
        }
      ],
      "name": "ConcertAdded",
      "type": "event"
    },
    {
      "anonymous": false,
      "inputs": [
        {
          "indexed": true,
          "internalType": "uint256",
          "name": "concertId",
          "type": "uint256"
        },
        {
          "indexed": true,
          "internalType": "address",
          "name": "buyer",
          "type": "address"
        },
        {
          "indexed": false,
          "internalType": "uint256",
          "name": "quantity",
          "type": "uint256"
        },
        {
          "indexed": false,
          "internalType": "uint256",
          "name": "remainingTickets",
          "type": "uint256"
        }
      ],
      "name": "TicketsPurchased",
      "type": "event"
    },
    {
      "inputs": [
        {
          "internalType": "uint256",
          "name": "concertId",
          "type": "uint256"
        },
        {
          "internalType": "uint256",
          "name": "capacity",
          "type": "uint256"
        }
      ],
      "name": "addConcert",
      "outputs": [],
      "stateMutability": "nonpayable",
      "type": "function"
    },
    {
      "inputs": [
        {
          "internalType": "uint256",
          "name": "concertId",
          "type": "uint256"
        }
      ],
      "name": "concertExists",
      "outputs": [
        {
          "internalType": "bool",
          "name": "",
          "type": "bool"
        }
      ],
      "stateMutability": "view",
      "type": "function"
    },
    {
      "inputs": [
        {
          "internalType": "uint256",
          "name": "",
          "type": "uint256"
        }
      ],
      "name": "concerts",
      "outputs": [
        {
          "internalType": "uint256",
          "name": "totalCapacity",
          "type": "uint256"
        },
        {
          "internalType": "uint256",
          "name": "ticketsSold",
          "type": "uint256"
        },
        {
          "internalType": "bool",
          "name": "isActive",
          "type": "bool"
        }
      ],
      "stateMutability": "view",
      "type": "function"
    },
    {
      "inputs": [
        {
          "internalType": "uint256",
          "name": "concertId",
          "type": "uint256"
        }
      ],
      "name": "getRemainingTickets",
      "outputs": [
        {
          "internalType": "uint256",
          "name": "",
          "type": "uint256"
        }
      ],
      "stateMutability": "view",
      "type": "function"
    },
    {
      "inputs": [],
      "name": "owner",
      "outputs": [
        {
          "internalType": "address",
          "name": "",
          "type": "address"
        }
      ],
      "stateMutability": "view",
      "type": "function"
    },
    {
      "inputs": [
        {
          "internalType": "uint256",
          "name": "concertId",
          "type": "uint256"
        },
        {
          "internalType": "uint256",
          "name": "quantity",
          "type": "uint256"
        }
      ],
      "name": "purchaseTickets",
      "outputs": [],
      "stateMutability": "payable",
      "type": "function"
    }
  ],
  "devdoc": {
    "kind": "dev",
    "methods": {},
    "version": 1
  },
  "evm": {
    "assembly": "    /* \"concert.sol\":61:2576  contract ConcertTickets {... */\n  mstore(0x40, 0x80)\n    /* \"concert.sol\":752:803  constructor() {... */\n  callvalue\n  dup1\n  iszero\n  tag_1\n  jumpi\n  0x00\n  dup1\n  revert\ntag_1:\n  pop\n    /* \"concert.sol\":777:782  owner */\n  0x01\n    /* \"concert.sol\":777:795  owner = msg.sender */\n  dup1\n  sload\n  not(sub(shl(0xa0, 0x01), 0x01))\n  and\n    /* \"concert.sol\":785:795  msg.sender */\n  caller\n    /* \"concert.sol\":777:795  owner = msg.sender */\n  or\n  swap1\n  sstore\n    /* \"concert.sol\":61:2576  contract ConcertTickets {... */\n  dataSize(sub_0)\n  dup1\n  dataOffset(sub_0)\n  0x00\n  codecopy\n  0x00\n  return\nstop\n\nsub_0: assembly {\n        /* \"concert.sol\":61:2576  contract ConcertTickets {... */\n      mstore(0x40, 0x80)\n      jumpi(tag_1, lt(calldatasize, 0x04))\n      shr(0xe0, calldataload(0x00))\n      dup1\n      0xa0b3a39e\n      gt\n      tag_8\n      jumpi\n      dup1\n      0xa0b3a39e\n      eq\n      tag_5\n      jumpi\n      dup1\n      0xbeafe50c\n      eq\n      tag_6\n      jumpi\n      dup1\n      0xf4057c06\n      eq\n      tag_7\n      jumpi\n      0x00\n      dup1\n      revert\n    tag_8:\n      dup1\n      0x0d0bc89f\n      eq\n      tag_2\n      jumpi\n      dup1\n      0x80af305a\n      eq\n      tag_3\n      jumpi\n      dup1\n      0x8da5cb5b\n      eq\n      tag_4\n      jumpi\n    tag_1:\n      0x00\n      dup1\n      revert\n        /* \"concert.sol\":980:1408  function addConcert(uint256 concertId, uint256 capacity) external onlyOwner {... */\n    tag_2:\n      callvalue\n      dup1\n      iszero\n      tag_9\n      jumpi\n      0x00\n      dup1\n      revert\n    tag_9:\n      pop\n      tag_10\n      tag_11\n      calldatasize\n      0x04\n      tag_12\n      jump\t// in\n    tag_11:\n      tag_13\n      jump\t// in\n    tag_10:\n      stop\n        /* \"concert.sol\":2115:2392  function getRemainingTickets(uint256 concertId) external view returns (uint256) {... */\n    tag_3:\n      callvalue\n      dup1\n      iszero\n      tag_14\n      jumpi\n      0x00\n      dup1\n      revert\n    tag_14:\n      pop\n      tag_15\n      tag_16\n      calldatasize\n      0x04\n      tag_17\n      jump\t// in\n    tag_16:\n      tag_18\n      jump\t// in\n    tag_15:\n      mload(0x40)\n        /* \"#utility.yul\":598:623   */\n      swap1\n      dup2\n      mstore\n        /* \"#utility.yul\":586:588   */\n      0x20\n        /* \"#utility.yul\":571:589   */\n      add\n        /* \"concert.sol\":2115:2392  function getRemainingTickets(uint256 concertId) external view returns (uint256) {... */\n    tag_19:\n      mload(0x40)\n      dup1\n      swap2\n      sub\n      swap1\n      return\n        /* \"concert.sol\":723:743  address public owner */\n    tag_4:\n      callvalue\n      dup1\n      iszero\n      tag_21\n      jumpi\n      0x00\n      dup1\n      revert\n    tag_21:\n      pop\n      sload(0x01)\n      tag_22\n      swap1\n      0xffffffffffffffffffffffffffffffffffffffff\n      and\n      dup2\n      jump\n    tag_22:\n      mload(0x40)\n        /* \"#utility.yul\":810:852   */\n      0xffffffffffffffffffffffffffffffffffffffff\n        /* \"#utility.yul\":798:853   */\n      swap1\n      swap2\n      and\n        /* \"#utility.yul\":780:854   */\n      dup2\n      mstore\n        /* \"#utility.yul\":768:770   */\n      0x20\n        /* \"#utility.yul\":753:771   */\n      add\n        /* \"concert.sol\":723:743  address public owner */\n      tag_19\n        /* \"#utility.yul\":634:860   */\n      jump\n        /* \"concert.sol\":2448:2573  function concertExists(uint256 concertId) external view returns (bool) {... */\n    tag_5:\n      callvalue\n      dup1\n      iszero\n      tag_26\n      jumpi\n      0x00\n      dup1\n      revert\n    tag_26:\n      pop\n      tag_27\n      tag_28\n      calldatasize\n      0x04\n      tag_17\n      jump\t// in\n    tag_28:\n        /* \"concert.sol\":2513:2517  bool */\n      0x00\n        /* \"concert.sol\":2537:2556  concerts[concertId] */\n      swap1\n      dup2\n      mstore\n      0x20\n      dup2\n      swap1\n      mstore\n      0x40\n      swap1\n      keccak256\n        /* \"concert.sol\":2537:2565  concerts[concertId].isActive */\n      0x02\n      add\n      sload\n      0xff\n      and\n      swap1\n        /* \"concert.sol\":2448:2573  function concertExists(uint256 concertId) external view returns (bool) {... */\n      jump\n    tag_27:\n      mload(0x40)\n        /* \"#utility.yul\":1030:1044   */\n      swap1\n      iszero\n        /* \"#utility.yul\":1023:1045   */\n      iszero\n        /* \"#utility.yul\":1005:1046   */\n      dup2\n      mstore\n        /* \"#utility.yul\":993:995   */\n      0x20\n        /* \"#utility.yul\":978:996   */\n      add\n        /* \"concert.sol\":2448:2573  function concertExists(uint256 concertId) external view returns (bool) {... */\n      tag_19\n        /* \"#utility.yul\":865:1052   */\n      jump\n        /* \"concert.sol\":303:346  mapping(uint256 => Concert) public concerts */\n    tag_6:\n      callvalue\n      dup1\n      iszero\n      tag_32\n      jumpi\n      0x00\n      dup1\n      revert\n    tag_32:\n      pop\n      tag_33\n      tag_34\n      calldatasize\n      0x04\n      tag_17\n      jump\t// in\n    tag_34:\n      0x00\n      0x20\n      dup2\n      swap1\n      mstore\n      swap1\n      dup2\n      mstore\n      0x40\n      swap1\n      keccak256\n      dup1\n      sload\n      0x01\n      dup3\n      add\n      sload\n      0x02\n      swap1\n      swap3\n      add\n      sload\n      swap1\n      swap2\n      swap1\n      0xff\n      and\n      dup4\n      jump\n    tag_33:\n      0x40\n      dup1\n      mload\n        /* \"#utility.yul\":1253:1278   */\n      swap4\n      dup5\n      mstore\n        /* \"#utility.yul\":1309:1311   */\n      0x20\n        /* \"#utility.yul\":1294:1312   */\n      dup5\n      add\n        /* \"#utility.yul\":1287:1321   */\n      swap3\n      swap1\n      swap3\n      mstore\n        /* \"#utility.yul\":1364:1378   */\n      iszero\n        /* \"#utility.yul\":1357:1379   */\n      iszero\n        /* \"#utility.yul\":1337:1355   */\n      swap1\n      dup3\n      add\n        /* \"#utility.yul\":1330:1380   */\n      mstore\n        /* \"#utility.yul\":1241:1243   */\n      0x60\n        /* \"#utility.yul\":1226:1244   */\n      add\n        /* \"concert.sol\":303:346  mapping(uint256 => Concert) public concerts */\n      tag_19\n        /* \"#utility.yul\":1057:1386   */\n      jump\n        /* \"concert.sol\":1455:2063  function purchaseTickets(uint256 concertId, uint256 quantity) external payable {... */\n    tag_7:\n      tag_10\n      tag_39\n      calldatasize\n      0x04\n      tag_12\n      jump\t// in\n    tag_39:\n      tag_40\n      jump\t// in\n        /* \"concert.sol\":980:1408  function addConcert(uint256 concertId, uint256 capacity) external onlyOwner {... */\n    tag_13:\n        /* \"concert.sol\":865:870  owner */\n      and(0xffffffffffffffffffffffffffffffffffffffff, sload(0x01))\n        /* \"concert.sol\":851:861  msg.sender */\n      caller\n        /* \"concert.sol\":851:870  msg.sender == owner */\n      eq\n        /* \"concert.sol\":843:908  require(msg.sender == owner, \"Only owner can call this function\") */\n      tag_42\n      jumpi\n      mload(0x40)\n      shl(0xe5, 0x461bcd)\n      dup2\n      mstore\n        /* \"#utility.yul\":1593:1595   */\n      0x20\n        /* \"concert.sol\":843:908  require(msg.sender == owner, \"Only owner can call this function\") */\n      0x04\n      dup3\n      add\n        /* \"#utility.yul\":1575:1596   */\n      mstore\n        /* \"#utility.yul\":1632:1634   */\n      0x21\n        /* \"#utility.yul\":1612:1630   */\n      0x24\n      dup3\n      add\n        /* \"#utility.yul\":1605:1635   */\n      mstore\n        /* \"#utility.yul\":1671:1705   */\n      0x4f6e6c79206f776e65722063616e2063616c6c20746869732066756e6374696f\n        /* \"#utility.yul\":1651:1669   */\n      0x44\n      dup3\n      add\n        /* \"#utility.yul\":1644:1706   */\n      mstore\n      shl(0xf9, 0x37)\n        /* \"#utility.yul\":1722:1740   */\n      0x64\n      dup3\n      add\n        /* \"#utility.yul\":1715:1746   */\n      mstore\n        /* \"#utility.yul\":1763:1782   */\n      0x84\n      add\n        /* \"concert.sol\":843:908  require(msg.sender == owner, \"Only owner can call this function\") */\n    tag_43:\n      mload(0x40)\n      dup1\n      swap2\n      sub\n      swap1\n      revert\n    tag_42:\n        /* \"concert.sol\":1076:1084  concerts */\n      0x00\n        /* \"concert.sol\":1076:1095  concerts[concertId] */\n      dup3\n      dup2\n      mstore\n      0x20\n      dup2\n      swap1\n      mstore\n      0x40\n      swap1\n      keccak256\n        /* \"concert.sol\":1076:1104  concerts[concertId].isActive */\n      0x02\n      add\n      sload\n      0xff\n      and\n        /* \"concert.sol\":1075:1104  !concerts[concertId].isActive */\n      iszero\n        /* \"concert.sol\":1067:1131  require(!concerts[concertId].isActive, \"Concert already exists\") */\n      tag_46\n      jumpi\n      mload(0x40)\n      shl(0xe5, 0x461bcd)\n      dup2\n      mstore\n        /* \"#utility.yul\":1995:1997   */\n      0x20\n        /* \"concert.sol\":1067:1131  require(!concerts[concertId].isActive, \"Concert already exists\") */\n      0x04\n      dup3\n      add\n        /* \"#utility.yul\":1977:1998   */\n      mstore\n        /* \"#utility.yul\":2034:2036   */\n      0x16\n        /* \"#utility.yul\":2014:2032   */\n      0x24\n      dup3\n      add\n        /* \"#utility.yul\":2007:2037   */\n      mstore\n        /* \"#utility.yul\":2073:2097   */\n      0x436f6e6365727420616c72656164792065786973747300000000000000000000\n        /* \"#utility.yul\":2053:2071   */\n      0x44\n      dup3\n      add\n        /* \"#utility.yul\":2046:2098   */\n      mstore\n        /* \"#utility.yul\":2115:2133   */\n      0x64\n      add\n        /* \"concert.sol\":1067:1131  require(!concerts[concertId].isActive, \"Concert already exists\") */\n      tag_43\n        /* \"#utility.yul\":1793:2139   */\n      jump\n        /* \"concert.sol\":1067:1131  require(!concerts[concertId].isActive, \"Concert already exists\") */\n    tag_46:\n        /* \"concert.sol\":1161:1162  0 */\n      0x00\n        /* \"concert.sol\":1150:1158  capacity */\n      dup2\n        /* \"concert.sol\":1150:1162  capacity > 0 */\n      gt\n        /* \"concert.sol\":1142:1198  require(capacity > 0, \"Capacity must be greater than 0\") */\n      tag_49\n      jumpi\n      mload(0x40)\n      shl(0xe5, 0x461bcd)\n      dup2\n      mstore\n        /* \"#utility.yul\":2346:2348   */\n      0x20\n        /* \"concert.sol\":1142:1198  require(capacity > 0, \"Capacity must be greater than 0\") */\n      0x04\n      dup3\n      add\n        /* \"#utility.yul\":2328:2349   */\n      mstore\n        /* \"#utility.yul\":2385:2387   */\n      0x1f\n        /* \"#utility.yul\":2365:2383   */\n      0x24\n      dup3\n      add\n        /* \"#utility.yul\":2358:2388   */\n      mstore\n        /* \"#utility.yul\":2424:2457   */\n      0x4361706163697479206d7573742062652067726561746572207468616e203000\n        /* \"#utility.yul\":2404:2422   */\n      0x44\n      dup3\n      add\n        /* \"#utility.yul\":2397:2458   */\n      mstore\n        /* \"#utility.yul\":2475:2493   */\n      0x64\n      add\n        /* \"concert.sol\":1142:1198  require(capacity > 0, \"Capacity must be greater than 0\") */\n      tag_43\n        /* \"#utility.yul\":2144:2499   */\n      jump\n        /* \"concert.sol\":1142:1198  require(capacity > 0, \"Capacity must be greater than 0\") */\n    tag_49:\n        /* \"concert.sol\":1233:1349  Concert({... */\n      0x40\n      dup1\n      mload\n      0x60\n      dup2\n      add\n      dup3\n      mstore\n      dup3\n      dup2\n      mstore\n      0x00\n      0x20\n      dup1\n      dup4\n      add\n      dup3\n      dup2\n      mstore\n        /* \"concert.sol\":1333:1337  true */\n      0x01\n        /* \"concert.sol\":1233:1349  Concert({... */\n      dup5\n      dup7\n      add\n      dup2\n      dup2\n      mstore\n        /* \"concert.sol\":1211:1230  concerts[concertId] */\n      dup9\n      dup6\n      mstore\n      dup5\n      dup5\n      mstore\n      swap4\n      dup7\n      swap1\n      keccak256\n        /* \"concert.sol\":1211:1349  concerts[concertId] = Concert({... */\n      swap5\n      mload\n      dup6\n      sstore\n      swap1\n      mload\n      swap1\n      dup5\n      add\n      sstore\n      swap1\n      mload\n      0x02\n      swap1\n      swap3\n      add\n      dup1\n      sload\n      not(0xff)\n      and\n      swap3\n      iszero\n      iszero\n      swap3\n      swap1\n      swap3\n      or\n      swap1\n      swap2\n      sstore\n        /* \"concert.sol\":1367:1400  ConcertAdded(concertId, capacity) */\n      swap1\n      mload\n        /* \"#utility.yul\":598:623   */\n      dup3\n      dup2\n      mstore\n        /* \"concert.sol\":1211:1230  concerts[concertId] */\n      dup4\n      swap2\n        /* \"concert.sol\":1367:1400  ConcertAdded(concertId, capacity) */\n      0x43378365549abaadf3bff8e376ee3e24db1fb7670990e5b5788eec91cf6c714f\n      swap2\n        /* \"#utility.yul\":571:589   */\n      add\n        /* \"concert.sol\":1367:1400  ConcertAdded(concertId, capacity) */\n      mload(0x40)\n      dup1\n      swap2\n      sub\n      swap1\n      log2\n        /* \"concert.sol\":980:1408  function addConcert(uint256 concertId, uint256 capacity) external onlyOwner {... */\n      pop\n      pop\n      jump\t// out\n        /* \"concert.sol\":2115:2392  function getRemainingTickets(uint256 concertId) external view returns (uint256) {... */\n    tag_18:\n        /* \"concert.sol\":2186:2193  uint256 */\n      0x00\n        /* \"concert.sol\":2232:2251  concerts[concertId] */\n      dup2\n      dup2\n      mstore\n      0x20\n      dup2\n      swap1\n      mstore\n      0x40\n      dup2\n      keccak256\n        /* \"concert.sol\":2270:2286  concert.isActive */\n      0x02\n      dup2\n      add\n      sload\n      0xff\n      and\n        /* \"concert.sol\":2262:2313  require(concert.isActive, \"Concert does not exist\") */\n      tag_54\n      jumpi\n      mload(0x40)\n      shl(0xe5, 0x461bcd)\n      dup2\n      mstore\n        /* \"#utility.yul\":2706:2708   */\n      0x20\n        /* \"concert.sol\":2262:2313  require(concert.isActive, \"Concert does not exist\") */\n      0x04\n      dup3\n      add\n        /* \"#utility.yul\":2688:2709   */\n      mstore\n        /* \"#utility.yul\":2745:2747   */\n      0x16\n        /* \"#utility.yul\":2725:2743   */\n      0x24\n      dup3\n      add\n        /* \"#utility.yul\":2718:2748   */\n      mstore\n        /* \"#utility.yul\":2784:2808   */\n      0x436f6e6365727420646f6573206e6f7420657869737400000000000000000000\n        /* \"#utility.yul\":2764:2782   */\n      0x44\n      dup3\n      add\n        /* \"#utility.yul\":2757:2809   */\n      mstore\n        /* \"#utility.yul\":2826:2844   */\n      0x64\n      add\n        /* \"concert.sol\":2262:2313  require(concert.isActive, \"Concert does not exist\") */\n      tag_43\n        /* \"#utility.yul\":2504:2850   */\n      jump\n        /* \"concert.sol\":2262:2313  require(concert.isActive, \"Concert does not exist\") */\n    tag_54:\n        /* \"concert.sol\":2365:2384  concert.ticketsSold */\n      0x01\n      dup2\n      add\n      sload\n        /* \"concert.sol\":2341:2362  concert.totalCapacity */\n      dup2\n      sload\n        /* \"concert.sol\":2341:2384  concert.totalCapacity - concert.ticketsSold */\n      tag_57\n      swap2\n        /* \"concert.sol\":2365:2384  concert.ticketsSold */\n      swap1\n        /* \"concert.sol\":2341:2384  concert.totalCapacity - concert.ticketsSold */\n      tag_58\n      jump\t// in\n    tag_57:\n        /* \"concert.sol\":2334:2384  return concert.totalCapacity - concert.ticketsSold */\n      swap4\n        /* \"concert.sol\":2115:2392  function getRemainingTickets(uint256 concertId) external view returns (uint256) {... */\n      swap3\n      pop\n      pop\n      pop\n      jump\t// out\n        /* \"concert.sol\":1455:2063  function purchaseTickets(uint256 concertId, uint256 quantity) external payable {... */\n    tag_40:\n        /* \"concert.sol\":1545:1568  Concert storage concert */\n      0x00\n        /* \"concert.sol\":1571:1590  concerts[concertId] */\n      dup3\n      dup2\n      mstore\n      0x20\n      dup2\n      swap1\n      mstore\n      0x40\n      swap1\n      keccak256\n        /* \"concert.sol\":1619:1635  concert.isActive */\n      0x02\n      dup2\n      add\n      sload\n      0xff\n      and\n        /* \"concert.sol\":1611:1662  require(concert.isActive, \"Concert does not exist\") */\n      tag_61\n      jumpi\n      mload(0x40)\n      shl(0xe5, 0x461bcd)\n      dup2\n      mstore\n        /* \"#utility.yul\":2706:2708   */\n      0x20\n        /* \"concert.sol\":1611:1662  require(concert.isActive, \"Concert does not exist\") */\n      0x04\n      dup3\n      add\n        /* \"#utility.yul\":2688:2709   */\n      mstore\n        /* \"#utility.yul\":2745:2747   */\n      0x16\n        /* \"#utility.yul\":2725:2743   */\n      0x24\n      dup3\n      add\n        /* \"#utility.yul\":2718:2748   */\n      mstore\n        /* \"#utility.yul\":2784:2808   */\n      0x436f6e6365727420646f6573206e6f7420657869737400000000000000000000\n        /* \"#utility.yul\":2764:2782   */\n      0x44\n      dup3\n      add\n        /* \"#utility.yul\":2757:2809   */\n      mstore\n        /* \"#utility.yul\":2826:2844   */\n      0x64\n      add\n        /* \"concert.sol\":1611:1662  require(concert.isActive, \"Concert does not exist\") */\n      tag_43\n        /* \"#utility.yul\":2504:2850   */\n      jump\n        /* \"concert.sol\":1611:1662  require(concert.isActive, \"Concert does not exist\") */\n    tag_61:\n        /* \"concert.sol\":1692:1693  0 */\n      0x00\n        /* \"concert.sol\":1681:1689  quantity */\n      dup3\n        /* \"concert.sol\":1681:1693  quantity > 0 */\n      gt\n        /* \"concert.sol\":1673:1729  require(quantity > 0, \"Quantity must be greater than 0\") */\n      tag_63\n      jumpi\n      mload(0x40)\n      shl(0xe5, 0x461bcd)\n      dup2\n      mstore\n        /* \"#utility.yul\":3322:3324   */\n      0x20\n        /* \"concert.sol\":1673:1729  require(quantity > 0, \"Quantity must be greater than 0\") */\n      0x04\n      dup3\n      add\n        /* \"#utility.yul\":3304:3325   */\n      mstore\n        /* \"#utility.yul\":3361:3363   */\n      0x1f\n        /* \"#utility.yul\":3341:3359   */\n      0x24\n      dup3\n      add\n        /* \"#utility.yul\":3334:3364   */\n      mstore\n        /* \"#utility.yul\":3400:3433   */\n      0x5175616e74697479206d7573742062652067726561746572207468616e203000\n        /* \"#utility.yul\":3380:3398   */\n      0x44\n      dup3\n      add\n        /* \"#utility.yul\":3373:3434   */\n      mstore\n        /* \"#utility.yul\":3451:3469   */\n      0x64\n      add\n        /* \"concert.sol\":1673:1729  require(quantity > 0, \"Quantity must be greater than 0\") */\n      tag_43\n        /* \"#utility.yul\":3120:3475   */\n      jump\n        /* \"concert.sol\":1673:1729  require(quantity > 0, \"Quantity must be greater than 0\") */\n    tag_63:\n        /* \"concert.sol\":1782:1803  concert.totalCapacity */\n      dup1\n      sload\n        /* \"concert.sol\":1748:1767  concert.ticketsSold */\n      0x01\n      dup3\n      add\n      sload\n        /* \"concert.sol\":1748:1778  concert.ticketsSold + quantity */\n      tag_66\n      swap1\n        /* \"concert.sol\":1770:1778  quantity */\n      dup5\n      swap1\n        /* \"concert.sol\":1748:1778  concert.ticketsSold + quantity */\n      tag_67\n      jump\t// in\n    tag_66:\n        /* \"concert.sol\":1748:1803  concert.ticketsSold + quantity <= concert.totalCapacity */\n      gt\n      iszero\n        /* \"concert.sol\":1740:1836  require(concert.ticketsSold + quantity <= concert.totalCapacity, \"Not enough tickets available\") */\n      tag_68\n      jumpi\n      mload(0x40)\n      shl(0xe5, 0x461bcd)\n      dup2\n      mstore\n        /* \"#utility.yul\":3812:3814   */\n      0x20\n        /* \"concert.sol\":1740:1836  require(concert.ticketsSold + quantity <= concert.totalCapacity, \"Not enough tickets available\") */\n      0x04\n      dup3\n      add\n        /* \"#utility.yul\":3794:3815   */\n      mstore\n        /* \"#utility.yul\":3851:3853   */\n      0x1c\n        /* \"#utility.yul\":3831:3849   */\n      0x24\n      dup3\n      add\n        /* \"#utility.yul\":3824:3854   */\n      mstore\n        /* \"#utility.yul\":3890:3920   */\n      0x4e6f7420656e6f756768207469636b65747320617661696c61626c6500000000\n        /* \"#utility.yul\":3870:3888   */\n      0x44\n      dup3\n      add\n        /* \"#utility.yul\":3863:3921   */\n      mstore\n        /* \"#utility.yul\":3938:3956   */\n      0x64\n      add\n        /* \"concert.sol\":1740:1836  require(concert.ticketsSold + quantity <= concert.totalCapacity, \"Not enough tickets available\") */\n      tag_43\n        /* \"#utility.yul\":3610:3962   */\n      jump\n        /* \"concert.sol\":1740:1836  require(concert.ticketsSold + quantity <= concert.totalCapacity, \"Not enough tickets available\") */\n    tag_68:\n        /* \"concert.sol\":1872:1880  quantity */\n      dup2\n        /* \"concert.sol\":1849:1856  concert */\n      dup2\n        /* \"concert.sol\":1849:1868  concert.ticketsSold */\n      0x01\n      add\n      0x00\n        /* \"concert.sol\":1849:1880  concert.ticketsSold += quantity */\n      dup3\n      dup3\n      sload\n      tag_71\n      swap2\n      swap1\n      tag_67\n      jump\t// in\n    tag_71:\n      swap1\n      swap2\n      sstore\n      pop\n      pop\n        /* \"concert.sol\":2025:2044  concert.ticketsSold */\n      0x01\n      dup2\n      add\n      sload\n        /* \"concert.sol\":2001:2022  concert.totalCapacity */\n      dup2\n      sload\n        /* \"concert.sol\":1953:1963  msg.sender */\n      caller\n      swap2\n        /* \"concert.sol\":1929:1938  concertId */\n      dup6\n      swap2\n        /* \"concert.sol\":1898:2055  TicketsPurchased(... */\n      0x830c4a183800e86da29c219cdb1ad8e51a4924fd549d8d2ee32d641c3b4e25a5\n      swap2\n        /* \"concert.sol\":1978:1986  quantity */\n      dup7\n      swap2\n        /* \"concert.sol\":2001:2044  concert.totalCapacity - concert.ticketsSold */\n      tag_72\n      swap2\n        /* \"concert.sol\":2025:2044  concert.ticketsSold */\n      swap1\n        /* \"concert.sol\":2001:2044  concert.totalCapacity - concert.ticketsSold */\n      tag_58\n      jump\t// in\n    tag_72:\n        /* \"concert.sol\":1898:2055  TicketsPurchased(... */\n      0x40\n      dup1\n      mload\n        /* \"#utility.yul\":4141:4166   */\n      swap3\n      dup4\n      mstore\n        /* \"#utility.yul\":4197:4199   */\n      0x20\n        /* \"#utility.yul\":4182:4200   */\n      dup4\n      add\n        /* \"#utility.yul\":4175:4209   */\n      swap2\n      swap1\n      swap2\n      mstore\n        /* \"#utility.yul\":4114:4132   */\n      add\n        /* \"concert.sol\":1898:2055  TicketsPurchased(... */\n      mload(0x40)\n      dup1\n      swap2\n      sub\n      swap1\n      log3\n        /* \"concert.sol\":1534:2063  {... */\n      pop\n        /* \"concert.sol\":1455:2063  function purchaseTickets(uint256 concertId, uint256 quantity) external payable {... */\n      pop\n      pop\n      jump\t// out\n        /* \"#utility.yul\":14:262   */\n    tag_12:\n        /* \"#utility.yul\":82:88   */\n      0x00\n        /* \"#utility.yul\":90:96   */\n      dup1\n        /* \"#utility.yul\":143:145   */\n      0x40\n        /* \"#utility.yul\":131:140   */\n      dup4\n        /* \"#utility.yul\":122:129   */\n      dup6\n        /* \"#utility.yul\":118:141   */\n      sub\n        /* \"#utility.yul\":114:146   */\n      slt\n        /* \"#utility.yul\":111:163   */\n      iszero\n      tag_78\n      jumpi\n        /* \"#utility.yul\":159:160   */\n      0x00\n        /* \"#utility.yul\":156:157   */\n      dup1\n        /* \"#utility.yul\":149:161   */\n      revert\n        /* \"#utility.yul\":111:163   */\n    tag_78:\n      pop\n      pop\n        /* \"#utility.yul\":182:205   */\n      dup1\n      calldataload\n      swap3\n        /* \"#utility.yul\":252:254   */\n      0x20\n        /* \"#utility.yul\":237:255   */\n      swap1\n      swap2\n      add\n        /* \"#utility.yul\":224:256   */\n      calldataload\n      swap2\n      pop\n        /* \"#utility.yul\":14:262   */\n      jump\t// out\n        /* \"#utility.yul\":267:447   */\n    tag_17:\n        /* \"#utility.yul\":326:332   */\n      0x00\n        /* \"#utility.yul\":379:381   */\n      0x20\n        /* \"#utility.yul\":367:376   */\n      dup3\n        /* \"#utility.yul\":358:365   */\n      dup5\n        /* \"#utility.yul\":354:377   */\n      sub\n        /* \"#utility.yul\":350:382   */\n      slt\n        /* \"#utility.yul\":347:399   */\n      iszero\n      tag_80\n      jumpi\n        /* \"#utility.yul\":395:396   */\n      0x00\n        /* \"#utility.yul\":392:393   */\n      dup1\n        /* \"#utility.yul\":385:397   */\n      revert\n        /* \"#utility.yul\":347:399   */\n    tag_80:\n      pop\n        /* \"#utility.yul\":418:441   */\n      calldataload\n      swap2\n        /* \"#utility.yul\":267:447   */\n      swap1\n      pop\n      jump\t// out\n        /* \"#utility.yul\":2855:2982   */\n    tag_75:\n        /* \"#utility.yul\":2916:2926   */\n      0x4e487b71\n        /* \"#utility.yul\":2911:2914   */\n      0xe0\n        /* \"#utility.yul\":2907:2927   */\n      shl\n        /* \"#utility.yul\":2904:2905   */\n      0x00\n        /* \"#utility.yul\":2897:2928   */\n      mstore\n        /* \"#utility.yul\":2947:2951   */\n      0x11\n        /* \"#utility.yul\":2944:2945   */\n      0x04\n        /* \"#utility.yul\":2937:2952   */\n      mstore\n        /* \"#utility.yul\":2971:2975   */\n      0x24\n        /* \"#utility.yul\":2968:2969   */\n      0x00\n        /* \"#utility.yul\":2961:2976   */\n      revert\n        /* \"#utility.yul\":2987:3115   */\n    tag_58:\n        /* \"#utility.yul\":3054:3063   */\n      dup2\n      dup2\n      sub\n        /* \"#utility.yul\":3075:3086   */\n      dup2\n      dup2\n      gt\n        /* \"#utility.yul\":3072:3109   */\n      iszero\n      tag_92\n      jumpi\n        /* \"#utility.yul\":3089:3107   */\n      tag_92\n      tag_75\n      jump\t// in\n    tag_92:\n        /* \"#utility.yul\":2987:3115   */\n      swap3\n      swap2\n      pop\n      pop\n      jump\t// out\n        /* \"#utility.yul\":3480:3605   */\n    tag_67:\n        /* \"#utility.yul\":3545:3554   */\n      dup1\n      dup3\n      add\n        /* \"#utility.yul\":3566:3576   */\n      dup1\n      dup3\n      gt\n        /* \"#utility.yul\":3563:3599   */\n      iszero\n      tag_92\n      jumpi\n        /* \"#utility.yul\":3579:3597   */\n      tag_92\n      tag_75\n      jump\t// in\n\n    auxdata: 0xa264697066735822122083f9e12bbd408d71d859cc937e0ebe1fae953894e92c71b67e280faed9dc7fed64736f6c63430008190033\n}\n",
    "bytecode": {
      "linkReferences": {},
      "object": "6080604052348015600e575f80fd5b50600180546001600160a01b031916331790556106028061002e5f395ff3fe608060405260043610610063575f3560e01c8063a0b3a39e11610041578063a0b3a39e1461010b578063beafe50c1461014c578063f4057c06146101a6575f80fd5b80630d0bc89f1461006757806380af305a146100885780638da5cb5b146100ba575b5f80fd5b348015610072575f80fd5b50610086610081366004610555565b6101b9565b005b348015610093575f80fd5b506100a76100a2366004610575565b61035e565b6040519081526020015b60405180910390f35b3480156100c5575f80fd5b506001546100e69073ffffffffffffffffffffffffffffffffffffffff1681565b60405173ffffffffffffffffffffffffffffffffffffffff90911681526020016100b1565b348015610116575f80fd5b5061013c610125366004610575565b5f9081526020819052604090206002015460ff1690565b60405190151581526020016100b1565b348015610157575f80fd5b50610189610166366004610575565b5f6020819052908152604090208054600182015460029092015490919060ff1683565b6040805193845260208401929092521515908201526060016100b1565b6100866101b4366004610555565b6103d7565b60015473ffffffffffffffffffffffffffffffffffffffff16331461022f5760405162461bcd60e51b815260206004820152602160248201527f4f6e6c79206f776e65722063616e2063616c6c20746869732066756e6374696f6044820152603760f91b60648201526084015b60405180910390fd5b5f8281526020819052604090206002015460ff16156102905760405162461bcd60e51b815260206004820152601660248201527f436f6e6365727420616c726561647920657869737473000000000000000000006044820152606401610226565b5f81116102df5760405162461bcd60e51b815260206004820152601f60248201527f4361706163697479206d7573742062652067726561746572207468616e2030006044820152606401610226565b604080516060810182528281525f60208083018281526001848601818152888552848452938690209451855590519084015590516002909201805460ff191692151592909217909155905182815283917f43378365549abaadf3bff8e376ee3e24db1fb7670990e5b5788eec91cf6c714f910160405180910390a25050565b5f818152602081905260408120600281015460ff166103bf5760405162461bcd60e51b815260206004820152601660248201527f436f6e6365727420646f6573206e6f74206578697374000000000000000000006044820152606401610226565b600181015481546103d091906105a0565b9392505050565b5f828152602081905260409020600281015460ff166104385760405162461bcd60e51b815260206004820152601660248201527f436f6e6365727420646f6573206e6f74206578697374000000000000000000006044820152606401610226565b5f82116104875760405162461bcd60e51b815260206004820152601f60248201527f5175616e74697479206d7573742062652067726561746572207468616e2030006044820152606401610226565b805460018201546104999084906105b9565b11156104e75760405162461bcd60e51b815260206004820152601c60248201527f4e6f7420656e6f756768207469636b65747320617661696c61626c65000000006044820152606401610226565b81816001015f8282546104fa91906105b9565b909155505060018101548154339185917f830c4a183800e86da29c219cdb1ad8e51a4924fd549d8d2ee32d641c3b4e25a591869161053891906105a0565b6040805192835260208301919091520160405180910390a3505050565b5f8060408385031215610566575f80fd5b50508035926020909101359150565b5f60208284031215610585575f80fd5b5035919050565b634e487b7160e01b5f52601160045260245ffd5b818103818111156105b3576105b361058c565b92915050565b808201808211156105b3576105b361058c56fea264697066735822122083f9e12bbd408d71d859cc937e0ebe1fae953894e92c71b67e280faed9dc7fed64736f6c63430008190033",
      "opcodes": "PUSH1 0x80 PUSH1 0x40 MSTORE CALLVALUE DUP1 ISZERO PUSH1 0xE JUMPI PUSH0 DUP1 REVERT JUMPDEST POP PUSH1 0x1 DUP1 SLOAD PUSH1 0x1 PUSH1 0x1 PUSH1 0xA0 SHL SUB NOT AND CALLER OR SWAP1 SSTORE PUSH2 0x602 DUP1 PUSH2 0x2E PUSH0 CODECOPY PUSH0 RETURN INVALID PUSH1 0x80 PUSH1 0x40 MSTORE PUSH1 0x4 CALLDATASIZE LT PUSH2 0x63 JUMPI PUSH0 CALLDATALOAD PUSH1 0xE0 SHR DUP1 PUSH4 0xA0B3A39E GT PUSH2 0x41 JUMPI DUP1 PUSH4 0xA0B3A39E EQ PUSH2 0x10B JUMPI DUP1 PUSH4 0xBEAFE50C EQ PUSH2 0x14C JUMPI DUP1 PUSH4 0xF4057C06 EQ PUSH2 0x1A6 JUMPI PUSH0 DUP1 REVERT JUMPDEST DUP1 PUSH4 0xD0BC89F EQ PUSH2 0x67 JUMPI DUP1 PUSH4 0x80AF305A EQ PUSH2 0x88 JUMPI DUP1 PUSH4 0x8DA5CB5B EQ PUSH2 0xBA JUMPI JUMPDEST PUSH0 DUP1 REVERT JUMPDEST CALLVALUE DUP1 ISZERO PUSH2 0x72 JUMPI PUSH0 DUP1 REVERT JUMPDEST POP PUSH2 0x86 PUSH2 0x81 CALLDATASIZE PUSH1 0x4 PUSH2 0x555 JUMP JUMPDEST PUSH2 0x1B9 JUMP JUMPDEST STOP JUMPDEST CALLVALUE DUP1 ISZERO PUSH2 0x93 JUMPI PUSH0 DUP1 REVERT JUMPDEST POP PUSH2 0xA7 PUSH2 0xA2 CALLDATASIZE PUSH1 0x4 PUSH2 0x575 JUMP JUMPDEST PUSH2 0x35E JUMP JUMPDEST PUSH1 0x40 MLOAD SWAP1 DUP2 MSTORE PUSH1 0x20 ADD JUMPDEST PUSH1 0x40 MLOAD DUP1 SWAP2 SUB SWAP1 RETURN JUMPDEST CALLVALUE DUP1 ISZERO PUSH2 0xC5 JUMPI PUSH0 DUP1 REVERT JUMPDEST POP PUSH1 0x1 SLOAD PUSH2 0xE6 SWAP1 PUSH20 0xFFFFFFFFFFFFFFFFFFFFFFFFFFFFFFFFFFFFFFFF AND DUP2 JUMP JUMPDEST PUSH1 0x40 MLOAD PUSH20 0xFFFFFFFFFFFFFFFFFFFFFFFFFFFFFFFFFFFFFFFF SWAP1 SWAP2 AND DUP2 MSTORE PUSH1 0x20 ADD PUSH2 0xB1 JUMP JUMPDEST CALLVALUE DUP1 ISZERO PUSH2 0x116 JUMPI PUSH0 DUP1 REVERT JUMPDEST POP PUSH2 0x13C PUSH2 0x125 CALLDATASIZE PUSH1 0x4 PUSH2 0x575 JUMP JUMPDEST PUSH0 SWAP1 DUP2 MSTORE PUSH1 0x20 DUP2 SWAP1 MSTORE PUSH1 0x40 SWAP1 KECCAK256 PUSH1 0x2 ADD SLOAD PUSH1 0xFF AND SWAP1 JUMP JUMPDEST PUSH1 0x40 MLOAD SWAP1 ISZERO ISZERO DUP2 MSTORE PUSH1 0x20 ADD PUSH2 0xB1 JUMP JUMPDEST CALLVALUE DUP1 ISZERO PUSH2 0x157 JUMPI PUSH0 DUP1 REVERT JUMPDEST POP PUSH2 0x189 PUSH2 0x166 CALLDATASIZE PUSH1 0x4 PUSH2 0x575 JUMP JUMPDEST PUSH0 PUSH1 0x20 DUP2 SWAP1 MSTORE SWAP1 DUP2 MSTORE PUSH1 0x40 SWAP1 KECCAK256 DUP1 SLOAD PUSH1 0x1 DUP3 ADD SLOAD PUSH1 0x2 SWAP1 SWAP3 ADD SLOAD SWAP1 SWAP2 SWAP1 PUSH1 0xFF AND DUP4 JUMP JUMPDEST PUSH1 0x40 DUP1 MLOAD SWAP4 DUP5 MSTORE PUSH1 0x20 DUP5 ADD SWAP3 SWAP1 SWAP3 MSTORE ISZERO ISZERO SWAP1 DUP3 ADD MSTORE PUSH1 0x60 ADD PUSH2 0xB1 JUMP JUMPDEST PUSH2 0x86 PUSH2 0x1B4 CALLDATASIZE PUSH1 0x4 PUSH2 0x555 JUMP JUMPDEST PUSH2 0x3D7 JUMP JUMPDEST PUSH1 0x1 SLOAD PUSH20 0xFFFFFFFFFFFFFFFFFFFFFFFFFFFFFFFFFFFFFFFF AND CALLER EQ PUSH2 0x22F JUMPI PUSH1 0x40 MLOAD PUSH3 0x461BCD PUSH1 0xE5 SHL DUP2 MSTORE PUSH1 0x20 PUSH1 0x4 DUP3 ADD MSTORE PUSH1 0x21 PUSH1 0x24 DUP3 ADD MSTORE PUSH32 0x4F6E6C79206F776E65722063616E2063616C6C20746869732066756E6374696F PUSH1 0x44 DUP3 ADD MSTORE PUSH1 0x37 PUSH1 0xF9 SHL PUSH1 0x64 DUP3 ADD MSTORE PUSH1 0x84 ADD JUMPDEST PUSH1 0x40 MLOAD DUP1 SWAP2 SUB SWAP1 REVERT JUMPDEST PUSH0 DUP3 DUP2 MSTORE PUSH1 0x20 DUP2 SWAP1 MSTORE PUSH1 0x40 SWAP1 KECCAK256 PUSH1 0x2 ADD SLOAD PUSH1 0xFF AND ISZERO PUSH2 0x290 JUMPI PUSH1 0x40 MLOAD PUSH3 0x461BCD PUSH1 0xE5 SHL DUP2 MSTORE PUSH1 0x20 PUSH1 0x4 DUP3 ADD MSTORE PUSH1 0x16 PUSH1 0x24 DUP3 ADD MSTORE PUSH32 0x436F6E6365727420616C72656164792065786973747300000000000000000000 PUSH1 0x44 DUP3 ADD MSTORE PUSH1 0x64 ADD PUSH2 0x226 JUMP JUMPDEST PUSH0 DUP2 GT PUSH2 0x2DF JUMPI PUSH1 0x40 MLOAD PUSH3 0x461BCD PUSH1 0xE5 SHL DUP2 MSTORE PUSH1 0x20 PUSH1 0x4 DUP3 ADD MSTORE PUSH1 0x1F PUSH1 0x24 DUP3 ADD MSTORE PUSH32 0x4361706163697479206D7573742062652067726561746572207468616E203000 PUSH1 0x44 DUP3 ADD MSTORE PUSH1 0x64 ADD PUSH2 0x226 JUMP JUMPDEST PUSH1 0x40 DUP1 MLOAD PUSH1 0x60 DUP2 ADD DUP3 MSTORE DUP3 DUP2 MSTORE PUSH0 PUSH1 0x20 DUP1 DUP4 ADD DUP3 DUP2 MSTORE PUSH1 0x1 DUP5 DUP7 ADD DUP2 DUP2 MSTORE DUP9 DUP6 MSTORE DUP5 DUP5 MSTORE SWAP4 DUP7 SWAP1 KECCAK256 SWAP5 MLOAD DUP6 SSTORE SWAP1 MLOAD SWAP1 DUP5 ADD SSTORE SWAP1 MLOAD PUSH1 0x2 SWAP1 SWAP3 ADD DUP1 SLOAD PUSH1 0xFF NOT AND SWAP3 ISZERO ISZERO SWAP3 SWAP1 SWAP3 OR SWAP1 SWAP2 SSTORE SWAP1 MLOAD DUP3 DUP2 MSTORE DUP4 SWAP2 PUSH32 0x43378365549ABAADF3BFF8E376EE3E24DB1FB7670990E5B5788EEC91CF6C714F SWAP2 ADD PUSH1 0x40 MLOAD DUP1 SWAP2 SUB SWAP1 LOG2 POP POP JUMP JUMPDEST PUSH0 DUP2 DUP2 MSTORE PUSH1 0x20 DUP2 SWAP1 MSTORE PUSH1 0x40 DUP2 KECCAK256 PUSH1 0x2 DUP2 ADD SLOAD PUSH1 0xFF AND PUSH2 0x3BF JUMPI PUSH1 0x40 MLOAD PUSH3 0x461BCD PUSH1 0xE5 SHL DUP2 MSTORE PUSH1 0x20 PUSH1 0x4 DUP3 ADD MSTORE PUSH1 0x16 PUSH1 0x24 DUP3 ADD MSTORE PUSH32 0x436F6E6365727420646F6573206E6F7420657869737400000000000000000000 PUSH1 0x44 DUP3 ADD MSTORE PUSH1 0x64 ADD PUSH2 0x226 JUMP JUMPDEST PUSH1 0x1 DUP2 ADD SLOAD DUP2 SLOAD PUSH2 0x3D0 SWAP2 SWAP1 PUSH2 0x5A0 JUMP JUMPDEST SWAP4 SWAP3 POP POP POP JUMP JUMPDEST PUSH0 DUP3 DUP2 MSTORE PUSH1 0x20 DUP2 SWAP1 MSTORE PUSH1 0x40 SWAP1 KECCAK256 PUSH1 0x2 DUP2 ADD SLOAD PUSH1 0xFF AND PUSH2 0x438 JUMPI PUSH1 0x40 MLOAD PUSH3 0x461BCD PUSH1 0xE5 SHL DUP2 MSTORE PUSH1 0x20 PUSH1 0x4 DUP3 ADD MSTORE PUSH1 0x16 PUSH1 0x24 DUP3 ADD MSTORE PUSH32 0x436F6E6365727420646F6573206E6F7420657869737400000000000000000000 PUSH1 0x44 DUP3 ADD MSTORE PUSH1 0x64 ADD PUSH2 0x226 JUMP JUMPDEST PUSH0 DUP3 GT PUSH2 0x487 JUMPI PUSH1 0x40 MLOAD PUSH3 0x461BCD PUSH1 0xE5 SHL DUP2 MSTORE PUSH1 0x20 PUSH1 0x4 DUP3 ADD MSTORE PUSH1 0x1F PUSH1 0x24 DUP3 ADD MSTORE PUSH32 0x5175616E74697479206D7573742062652067726561746572207468616E203000 PUSH1 0x44 DUP3 ADD MSTORE PUSH1 0x64 ADD PUSH2 0x226 JUMP JUMPDEST DUP1 SLOAD PUSH1 0x1 DUP3 ADD SLOAD PUSH2 0x499 SWAP1 DUP5 SWAP1 PUSH2 0x5B9 JUMP JUMPDEST GT ISZERO PUSH2 0x4E7 JUMPI PUSH1 0x40 MLOAD PUSH3 0x461BCD PUSH1 0xE5 SHL DUP2 MSTORE PUSH1 0x20 PUSH1 0x4 DUP3 ADD MSTORE PUSH1 0x1C PUSH1 0x24 DUP3 ADD MSTORE PUSH32 0x4E6F7420656E6F756768207469636B65747320617661696C61626C6500000000 PUSH1 0x44 DUP3 ADD MSTORE PUSH1 0x64 ADD PUSH2 0x226 JUMP JUMPDEST DUP2 DUP2 PUSH1 0x1 ADD PUSH0 DUP3 DUP3 SLOAD PUSH2 0x4FA SWAP2 SWAP1 PUSH2 0x5B9 JUMP JUMPDEST SWAP1 SWAP2 SSTORE POP POP PUSH1 0x1 DUP2 ADD SLOAD DUP2 SLOAD CALLER SWAP2 DUP6 SWAP2 PUSH32 0x830C4A183800E86DA29C219CDB1AD8E51A4924FD549D8D2EE32D641C3B4E25A5 SWAP2 DUP7 SWAP2 PUSH2 0x538 SWAP2 SWAP1 PUSH2 0x5A0 JUMP JUMPDEST PUSH1 0x40 DUP1 MLOAD SWAP3 DUP4 MSTORE PUSH1 0x20 DUP4 ADD SWAP2 SWAP1 SWAP2 MSTORE ADD PUSH1 0x40 MLOAD DUP1 SWAP2 SUB SWAP1 LOG3 POP POP POP JUMP JUMPDEST PUSH0 DUP1 PUSH1 0x40 DUP4 DUP6 SUB SLT ISZERO PUSH2 0x566 JUMPI PUSH0 DUP1 REVERT JUMPDEST POP POP DUP1 CALLDATALOAD SWAP3 PUSH1 0x20 SWAP1 SWAP2 ADD CALLDATALOAD SWAP2 POP JUMP JUMPDEST PUSH0 PUSH1 0x20 DUP3 DUP5 SUB SLT ISZERO PUSH2 0x585 JUMPI PUSH0 DUP1 REVERT JUMPDEST POP CALLDATALOAD SWAP2 SWAP1 POP JUMP JUMPDEST PUSH4 0x4E487B71 PUSH1 0xE0 SHL PUSH0 MSTORE PUSH1 0x11 PUSH1 0x4 MSTORE PUSH1 0x24 PUSH0 REVERT JUMPDEST DUP2 DUP2 SUB DUP2 DUP2 GT ISZERO PUSH2 0x5B3 JUMPI PUSH2 0x5B3 PUSH2 0x58C JUMP JUMPDEST SWAP3 SWAP2 POP POP JUMP JUMPDEST DUP1 DUP3 ADD DUP1 DUP3 GT ISZERO PUSH2 0x5B3 JUMPI PUSH2 0x5B3 PUSH2 0x58C JUMP INVALID LOG2 PUSH5 0x6970667358 0x22 SLT KECCAK256 DUP4 0xF9 0xE1 0x2B 0xBD BLOCKHASH DUP14 PUSH18 0xD859CC937E0EBE1FAE953894E92C71B67E28 0xF 0xAE 0xD9 0xDC PUSH32 0xED64736F6C634300081900330000000000000000000000000000000000000000 "
    },
    "gasEstimates": {
      "creation": {
        "codeDepositCost": "307600",
        "executionCost": "24582",
        "totalCost": "332182"
      },
      "external": {
        "addConcert(uint256,uint256)": "57568",
        "concertExists(uint256)": "2456",
        "concerts(uint256)": "6747",
        "getRemainingTickets(uint256)": "6787",
        "owner()": "2357",
        "purchaseTickets(uint256,uint256)": "infinite"
      }
    },
    "methodIdentifiers": {
      "addConcert(uint256,uint256)": "0d0bc89f",
      "concertExists(uint256)": "a0b3a39e",
      "concerts(uint256)": "beafe50c",
      "getRemainingTickets(uint256)": "80af305a",
      "owner()": "8da5cb5b",
      "purchaseTickets(uint256,uint256)": "f4057c06"
    }
  },
  "storageLayout": {
    "storage": [
      {
        "astId": 13,
        "contract": "concert.sol:ConcertTickets",
        "label": "concerts",
        "offset": 0,
        "slot": "0",
        "type": "t_mapping(t_uint256,t_struct(Concert)8_storage)"
      },
      {
        "astId": 31,
        "contract": "concert.sol:ConcertTickets",
        "label": "owner",
        "offset": 0,
        "slot": "1",
        "type": "t_address"
      }
    ],
    "types": {
      "t_address": {
        "encoding": "inplace",
        "label": "address",
        "numberOfBytes": "20"
      },
      "t_bool": {
        "encoding": "inplace",
        "label": "bool",
        "numberOfBytes": "1"
      },
      "t_mapping(t_uint256,t_struct(Concert)8_storage)": {
        "encoding": "mapping",
        "key": "t_uint256",
        "label": "mapping(uint256 => struct ConcertTickets.Concert)",
        "numberOfBytes": "32",
        "value": "t_struct(Concert)8_storage"
      },
      "t_struct(Concert)8_storage": {
        "encoding": "inplace",
        "label": "struct ConcertTickets.Concert",
        "members": [
          {
            "astId": 3,
            "contract": "concert.sol:ConcertTickets",
            "label": "totalCapacity",
            "offset": 0,
            "slot": "0",
            "type": "t_uint256"
          },
          {
            "astId": 5,
            "contract": "concert.sol:ConcertTickets",
            "label": "ticketsSold",
            "offset": 0,
            "slot": "1",
            "type": "t_uint256"
          },
          {
            "astId": 7,
            "contract": "concert.sol:ConcertTickets",
            "label": "isActive",
            "offset": 0,
            "slot": "2",
            "type": "t_bool"
          }
        ],
        "numberOfBytes": "96"
      },
      "t_uint256": {
        "encoding": "inplace",
        "label": "uint256",
        "numberOfBytes": "32"
      }
    }
  },
  "userdoc": {
    "kind": "user",
    "methods": {},
    "version": 1
  }
}